:10000000689B0020AD0C0000955E0000990C00007C
:10001000990C0000990C0000990C000000000000F1
:10002000000000000000000000000000890E000039
:10003000990C0000000000000D0E0000990C00005B
:10004000811000008110000081100000811000006C
:10005000811000008110000081100000811000005C
:10006000811000008110000081100000811000004C
:10007000811000008110000081100000811000003C
:10008000811000008110000081100000811000002C
:10009000811000008110000081100000811000001C
:1000A000811000008110000081100000811000000C
:1000B00081100000811000008110000081100000FC
:1000C00081100000811000008110000081100000EC
:1000D00081100000811000008110000081100000DC
:1000E00081100000811000008110000081100000CC
:1000F00081100000811000008110000081100000BC
:100100007BB972B90029BEBF00204FF0004106E064
:1001100008BF00281CBF6FF000414FF0FF3000F017
:1001200057B8ADF1080C6DE904CE002909DB002BAE
:100130001ADB00F04FF8DDF804E0DDE9022304B03B
:100140007047404261EB4101002B1BDB00F042F89D
:10015000DDF804E0DDE9022304B0404261EB410137
:10016000524263EB43037047524263EB430300F098
:1001700031F8DDF804E0DDE9022304B0404261EB30
:1001800041017047524263EB430300F023F8DDF86E
:1001900004E0DDE9022304B0524263EB43037047FD
:1001A00053B94AB9002908BF00281CBF4FF0FF31DE
:1001B0004FF0FF3000F00CB8ADF1080C6DE904CE43
:1001C00000F008F8DDF804E0DDE9022304B0704730
:1001D000704700BF2DE9F04786468C460846089ECA
:1001E000154674461946002B40F0C2808542B2FA8B
:1001F00082F245D94AB1C2F1200300FA02FC2EFA7C
:1002000003F3954043EA0C0C94404FEA154EA8B214
:10021000BCFBFEF8230C0EFB18CC08FB00F943EAEC
:100220000C43994528D9EB1808F1FF3704D29945BA
:1002300002D9A8F102072B44A3EB0903A4B2B3FB34
:10024000FEFC0EFB1C330CFB00F044EA0344A0420E
:1002500014D92C190CF1FF3304D2A04202D9ACF10D
:1002600002032C44241A43EA07401EB1D440002361
:1002700034607360BDE8F0874746DDE76346F1E729
:1002800092BB431B01214FEA154EAFB2B3FBFEFCFC
:10029000200C0EFB1C330CFB07F840EA0343984587
:1002A00062D9EB180CF1FF3004D2984502D9ACF1B9
:1002B00002002B44A3EB0803A4B2B3FBFEFC0EFB2D
:1002C0001C330CFB07F744EA0344A7424ED92C1910
:1002D0000CF1FF3304D2A74202D9ACF102032C4443
:1002E000E41B43EA0040C0E7C2F1200320FA03F117
:1002F000954090402EFA03F303434FEA154EAFB2F8
:10030000B1FBFEFC0EFB1C10190C0CFB07F841EABC
:100310000041884504FA02F422D969180CF1FF3033
:1003200004D2884502D9ACF102002944A1EB0801AE
:100330009BB2B1FBFEFC0EFB1C110CFB07F743EA62
:1003400001439F420ED9EB180CF1FF3104D29F42BA
:1003500002D9ACF102012B44DB1B41EA004192E7D8
:100360006046E3E76146F7E76046A3E76346B7E721
:10037000834206D916B9002108467BE7C6E900E0AA
:10038000F9E7B3FA83F78FB9834201D3724508D8EE
:10039000BEEB020460EB030301209C461EB9002162
:1003A00068E73846FAE7C6E9004CF8E7C7F1200CE1
:1003B000BB4022FA0CF41C432EFA0CF120FA0CF389
:1003C000B84001434FEA14490EFA07F5B3FBF9F8B8
:1003D0001FFA84FE09FB18300B0C08FB0EFA43EAE7
:1003E00000439A4502FA07F240D9E31808F1FF30BA
:1003F00004D29A4502D9A8F102002344A3EB0A03D0
:1004000089B2B3FBF9F809FB183308FB0EFE41EA89
:1004100003418E452CD9611808F1FF3304D28E4573
:1004200002D9A8F10203214443EA0040A0FB02984C
:10043000A1EB0E014145CE46434602D306D14D45C0
:1004400004D2B9EB020E68EB04030138002EA6D0EB
:10045000B5EB0E0261EB030101FA0CFC22FA07F383
:100460004CEA0303F940C6E9003198E74046C5E786
:100470004346D9E708B5104805F08EFB00F024F894
:100480000E4805F004FB0E4805F086FB00214FF4F2
:10049000003004F0BBFD00F017F805F0DBFA002196
:1004A0004FF4004004F0B2FD05F01FFB054805F0D5
:1004B00073FB002008BD00BFE47700002303002089
:1004C000ED770000FF77000010B500F069F80446F2
:1004D00000285FD105F0A1FA05F061FA122005F0BD
:1004E0004AFA05F05CFA012005F045FAC72005F04C
:1004F0004CFA204605F049FA012005F046FA112091
:1005000005F039FA012005F040FA442005F033FAED
:10051000204605F03AFA182005F037FA452005F094
:100520002AFAC72005F031FA204605F02EFA2046B7
:1005300005F02BFA204605F028FA3C2005F01BFABE
:10054000012005F022FA182005F015FA802005F0A8
:100550001CFA222005F00FFAB12005F016FA20202F
:1005600005F009FA05F01BFA4E2005F004FA2046C2
:1005700005F00BFA4F2005F0FEF9C72005F005FA4B
:10058000204605F002FA05F00AFA044805F01BFAC5
:10059000204610BD4FF0FF34FAE700BF8402002070
:1005A000F8B5244806F0EFFB28B9234805F0F4FA23
:1005B0004FF0FF30F8BD214F386806F0E4FB08B972
:1005C0001F48F3E71F4E306806F0DDFB0028F7D028
:1005D0001D4D286806F0D7FB0028F1D01B4C206881
:1005E00006F0D1FB0028EBD04FF4D011384605F0CF
:1005F0008BFA002801DA1648D8E74FF4D0113046BC
:1006000005F082FA002801DA1248CFE74FF4D01142
:10061000284605F079FA002801DA0F48C6E74FF4BA
:100620008031204605F070FA002801DA0B48BDE75A
:100630000020BFE75473000006780000C0000020CF
:1006400012780000B8000020B0000020A8000020B0
:100650001F7800002B7800003678000041780000F9
:100660000146014805F06FBAC0000020014601486C
:1006700005F069BAB80000200146014805F063BAE8
:10068000B000002038B50C4A0C4B136018700C4BAE
:100690000C4919600124002054605C60FFF7ECFFF6
:1006A00009480A4A83680A491D680A4BA847204638
:1006B000BDE83840FFF7E0BF78190020801900201E
:1006C000701900209040002054730000387500001D
:1006D0001C75000030750000014B1B68184700BFF7
:1006E000C8000020014B1860704700BFC800002000
:1006F00030B585B004460D4610220021684606F04C
:100700009EFD02238DF802302A46044B01932146B8
:10071000684604F0D3FE05B030BD00BFD906000026
:1007200080B505460E461746984604F089FC0346F8
:1007300006F08EFDDFF81890044649F80030424676
:1007400030463946A84754F8090000F02FFB00BF97
:10075000080000002DE9F047058B04462807904665
:1007600011D4022905F0070540F0CD80204605F0A0
:1007700089FA78B10138218B042811D8DFE800F01C
:10078000C3106D85950001290CBF45F0100545F09B
:100790002005258388F31188BFF36F8FBDE8F087AC
:1007A00001F0070AAA4500F0A6800027B9463E4698
:1007B000A368002B00F0BD8041F00801218388F37D
:1007C0001188BFF36F8FA168002900F0BB800D680E
:1007D000002900F0B780D1F8048033465246204605
:1007E000C047002D76D02B6829461D46F0E701F062
:1007F00007035A1F012A1BD8002221F00701062BEC
:10080000276889B2C4E9002209D13B4603E0628B24
:10081000013262831B68002BF9D141F00201218370
:10082000204605F02FFA00287BD041F0200177E028
:10083000042B0AD121F0070189B22183204605F05B
:1008400021FA10B141F020012183218B01F0070A28
:10085000AA4550D00027B946AAE7236921F007012D
:1008600041F00601062DD3F8009021832DD1B9F176
:10087000000F40D041F00801218388F31188BFF3B5
:100880006F8F3A492046C84729E021F007012369C4
:1008900041F0040189B2042DD3F804902183E6D0FD
:1008A00000273E464FF0040A82E721F00701236942
:1008B00041F0050189B2052DD3F808902183D6D0E7
:1008C00000273E464FF0050A72E700273E464FF0EC
:1008D000060A6DE72B4687E7B9F1000FD1D14FF03B
:1008E0002003EFF3118883F31288BFF36F8F238BFC
:1008F00023F008032383258BEA062ED525F0100369
:10090000238305F007056669218B002EBFF66FAFC4
:1009100000232768C4E9003321F0070141F00101F9
:100920002183218B01F0070AAA454FF000097FF4CB
:100930003FAF002F9BD041F00801218388F311883D
:10094000BFF36F8F002FC7D03D68394633465246FC
:10095000204605F0C3F92F46F4E7AB067FF51AAF42
:1009600025F02003238305F00705FFE6095D00005D
:10097000014B0360002070474075000030BFFFF757
:10098000FDBF00BF124B134A2DE9F041D518DFF827
:100990004880013DB5FBF3F55D43104B08EB0304C4
:1009A000013CB4FBF3F403FB04540E1B07460C4953
:1009B000304606F036FC701942460021083E06F02B
:1009C0003EFCC7F8A46004F10800BDE8F08100BF58
:1009D000010000000000000004000000040000000E
:1009E00010750000044B99685869884203D0034988
:1009F0004FF080520A607047D469002004ED00E097
:100A000070B5264B15469A6A12F0100F9A6A14BFF9
:100A10001124102412F0080F9A6A18BF12249207AA
:100A200006460AD5586B9A6A140634D519B19A6AE3
:100A300022F080029A62132401E06FF01500174B38
:100A40009A6A12F0010F9A6A18BF142412F0200F4C
:100A50009A6A18BF1524D20602D49B6A9B070AD54E
:100A60000E4B5B68190506D5314600F09DFA10B1B2
:100A700080F309880224094B9A6A920642BF5A6A97
:100A800022F400525A629A6A42F0FF029A620023EC
:100A90002B70204670BD6FF01500CCE700ED00E034
:100AA000134B9A6A12F0007F9A6A14BF1E201D2011
:100AB00012F0807F9A6A18BF1F2012F4002F9A6AE2
:100AC00018BF212012F4802F9A6A18BF222012F436
:100AD000003F9A6A18BF232012F4803F9A6A6FEA97
:100AE00002426FEA12429A6218BF2420704700BF88
:100AF00000ED00E010B5194B0246986A9C6A10F4AC
:100B0000805F14BF1720162014F4006F9C6A18BF72
:100B10001820A40509D5986B986A000404D51AB169
:100B20009A6A22F400429A6219200C4B9A6A12F4D3
:100B3000806F9A6A18BF1A20D2050CD49B6A13F4EE
:100B4000005F18BF1C20054A936A43F47F439362F9
:100B500000230B7010BD1B20F5E700BF00ED00E087
:100B6000F0B5484B5B688BB00446C3F3080300251F
:100B700085F31188BFF36F8F02F07F40B0F17F4F94
:100B800011D102F00C0008280DD010074CBF0C4604
:100B900001250022033B8DF80720032B05D8DFE851
:100BA00003F0246367602C46F3E700239DF80720D9
:100BB000CAB902AE04F1200720686168324603C258
:100BC0000834BC421646F7D1099A002D54D0C2F31E
:100BD000080121B96FEA52226FEA4222099202A962
:100BE000184605F051F90BB0F0BD264BDA6A9107B3
:100BF000DBD4DA6A002AD8DBDA6A5200D5D55A6922
:100C0000A16942F480725A61BFF34F8FBFF36F8FB7
:100C10005A6931F8021C22F480725A61BFF34F8F77
:100C2000BFF36F8F4DF6027291420AD09A6AD2B228
:100C30004AB10DF1070201212046FFF7E1FE03460C
:100C4000B4E72368B2E79A6A12F47F4F05D00DF13A
:100C500007010120FFF74EFFF1E79B6AB3F5803FE4
:100C6000A3D3FFF71DFFEAE70DF107020021E3E739
:100C70000DF107010020EDE722F4FF7222F00102DE
:100C8000ACE700BF00ED00E0024A536943F01003F7
:100C90005361704700ED00E0EFF30880EFF3098146
:100CA00001B57246FFF75CFF01BD00BF002080F375
:100CB0001488BFF36F8F00F033FB00200D490860EC
:100CC000BFF34F8F0C4880F3088800F03DF82020D8
:100CD00080F3118809484FF40461401880F30988B3
:100CE000EFF314800221084380F31488BFF36F8F61
:100CF00000F022F994ED00E0689B0020806E002057
:100D0000BFF34F8F0549064BCA6802F4E0621343F4
:100D1000CB60BFF34F8F00BFFDE700BF00ED00E0E9
:100D20000400FA050749D1F890200023C2F30722F6
:100D30001846934200DB7047C1F89830C1F8A00014
:100D40000133F6E700ED00E008B572B6002383F347
:100D50001388FFF7E7FF144B4FF0FF32C3F88020F2
:100D6000C3F88420C3F88820C3F88C20C3F89020EF
:100D7000C3F89420C3F89820C3F89C20C3F88021BE
:100D8000C3F88421C3F88821C3F88C21C3F89021CB
:100D9000C3F89421C3F89821C3F89C2162B6BFF32D
:100DA0004F8FBFF36F8F08BD00E100E0084B9B68D9
:100DB00083420BD1EFF3058343B1064B5A6842F0EF
:100DC00080525A605A6A22F400425A6206F038B9D8
:100DD000D469002000ED00E00A4A93686FF00A0130
:100DE000C3F8AC100849C3F8A8004B6843F080531F
:100DF0004B60002383F31188BFF36F8F9368D3F8A0
:100E0000AC007047D469002000ED00E001B505F0AA
:100E1000D2FFBDE8014019498A684FF03000104404
:100E2000EFF3098C80E8F01F202080F31288BFF3D5
:100E30006F8F134F4FF000664A698A603E604FF033
:100E4000A404141920680F4C2060D2F8A8000023D5
:100E5000C2F8A83080F3118804B5104600F034F9C8
:100E6000BDE8044002F1300090E8F01F8CF30988DF
:100E700001B505F09FFFBDE801407047D46900202F
:100E800004ED00E0A06700201EF0040F0CBFEFF39C
:100E90000880EFF30980816911F8021C0229FFD054
:100EA00001B504F0F3FF01BD40B2002807DB044A9E
:100EB0004109012300F01F00834042F821307047B0
:100EC00000E100E040B200280CDB4309064900F0D5
:100ED0001F0020330122824041F82320BFF34F8FAF
:100EE000BFF36F8F704700BF00E100E0054B420980
:100EF00000F01F0053F82220012303FA00F01040F5
:100F0000704700BF00E100E040B20028A8BF00F138
:100F1000604001F10101B8BF064B4FEA4111ACBF7F
:100F200000F5614000F00F00C9B2B4BF195480F859
:100F30000013704714ED00E00B4A08B50B4B22F08C
:100F40007F029A60BFF34F8FBFF36F8FD3F8882073
:100F500022F47002C3F8882003F046F904F088F800
:100F600000F082F803F096F90000000000ED00E0C8
:100F700042F8203C009B42F81C3C0A49019B42F885
:100F8000183C029B42F8143C21F001014FF08073A1
:100F900042F8043C42F8081C0023203A0265C0F8DD
:100FA000A8307047210700000A4A0346906878B1CC
:100FB00013F1160FD0F8940005D0A0F140029A4228
:100FC00005D8834203D2814228BF00207047002009
:100FD000704700BFD469002008B50D4B98600D4BD9
:100FE00004461546D0F8A4201A600E4605F0E2FE2D
:100FF000204600F069F8284686F30988002163B688
:1010000081F31188BFF36F8F00220023FFF788FB65
:10101000D4690020A0670020014910220A607047AF
:1010200010ED00E001B504F02EFFBDE8014072B6FE
:10103000404080F31188BFF36F8FBFF34F8F30BFF5
:1010400062B6BFF36F8F704701B504F01CFFBDE8B7
:10105000014072B6494081F31188BFF34F8F20BF22
:1010600080F3118862B67047044800232021C2181B
:101070000133302B82F80013F9D1704700E100E012
:1010800001B504F0FEFEEFF30580A0F110004FEA79
:10109000C0000549014409C9984704F0F3FEBDE8C2
:1010A000014002490847000090730000E509000074
:1010B000024B034A0348012100F042B8000002201D
:1010C0000000002040750000D0F89420054B403A05
:1010D0001A60054A4021C3E901121846012100F0B7
:1010E00039B800BFA467002000000B15084AC2F8F9
:1010F00098000B6823F01F03034343F01003C2F86A
:101100009C308B6843F00103C2F8A030704700BFE9
:1011100000ED00E0044B0522C3F89420BFF34F8F8D
:10112000BFF36F8F704700BF00ED00E0BFF35F8F2C
:10113000024B0022C3F89420704700BF00ED00E08E
:1011400010B5034C0123227804F0BFFE207010BDBF
:10115000126A002008B5094A0023127804F0B5FE8F
:1011600010F1160F03D0064B0022072800DD08BD42
:10117000C3F89800C3F8A0200130F6E7126A0020F7
:1011800000ED00E0F0B5454D2C68082C85B000F26C
:101190008280FFF7CBFF00200C2684420DD1404D0A
:1011A000404F2C706846FFF7E3FB00240646A6423A
:1011B0000AD1FFF7AFFF00201CE0696806FB0011B1
:1011C000FFF794FF0130E8E7009800EB04114FEAC5
:1011D000041CCB683B40B3F5000F4AD00CD8B3F5E4
:1011E000001F30D0B3F5800F38D0B3F5801F12D078
:1011F0006FF0150005B0F0BDB3F1807F42D0B3F1C0
:10120000007FF5D150F80C3088684A6804F04DFE34
:1012100040F4802009E050F80C3088684A6804F0F7
:1012200044FE40F0885040F430200390287807288E
:10123000CDE90123DCD801A9FFF758FF2B78013352
:101240002B700134B3E750F80C3088684A6804F01A
:101250002CFE40F0885040F40020E6E750F80C30B7
:1012600088684A6804F021FE40F0E06040F40030F5
:10127000DBE750F80C3088684A6804F016FE40F04E
:101280008270D2E750F80C3088684A6804F00DFE8E
:1012900040F08870C9E74FF0FF30ABE74C750000B5
:1012A000126A00200000F0FF08B5024B1B68984747
:1012B000002008BDB0670020034B044A18609378F3
:1012C00043F0020393707047B0670020CC00002009
:1012D00008B50649064821F00701C1F1005202F5A0
:1012E000003204F092FC002008BD00BF07A00020DF
:1012F000B4670020044A0123C2F840354FF0804211
:101300000020C2F87835704700E0014020B1034B5F
:10131000800143F001031847704700BF10750000BB
:1013200001F006BE054B0122C3F8002590F8861097
:1013300009B1DA6070471A605A6070470070004067
:10134000087970B500F01F04072C20D80B780B2B00
:101350001DD8DFE803F0070707071C061C1C1F2128
:101360001C2304234A78032A1AD0042A0FD100250B
:101370004A8844F20A06B24246D013D844F2030621
:10138000B2423DD044F20506B2423BD0E2B36FF028
:10139000150034E00523E5E70623E3E70723E1E74B
:1013A0000125E5E744F21406B2422FD044F22806A4
:1013B000B2422DD044F20F06B242E8D10322C0F36C
:1013C00040101B0243EA005343EA053343EA024359
:1013D000220102F1804202F5E0420020C2F81835F5
:1013E000230103F1804303F5E0438A79C3F8142510
:1013F000C3F81005074B4A79234483F8A02070BD39
:101400000022DCE70122DAE70222D8E70422D6E74D
:101410000522D4E700000020F7B50D464FF0FF335A
:1014200057484FF0FF3203F091F96E68731EFE2BA0
:101430003CD800235348544F1A4626FA03F111F0C2
:10144000010126D017F803C0BCF1000F2ED000EB2D
:10145000031E6C7CDEF81815003C18BF012421F037
:10146000807141EA0461CEF8181503F151010901B8
:10147000013240F801C0D2B20133082BDDD12B7C00
:10148000083B062B12D8DFE803F009111D111911D2
:101490001B0003F1510424010151EDE700233949F8
:1014A000012AC1F8F0356B7C0ED97BB16FF01504C1
:1014B000334803F025F9204603B0F0BD0223EEE7E0
:1014C0000323ECE70123EAE7082BEFD8C1F8F43552
:1014D0002968530011B1898901FB0333E9689942F6
:1014E0004AD3284BA968C3F82C162F46C3F83026D8
:1014F0000FCF264C04F174060FC63B6833600026FC
:1015000026672B6827469BB30FCB04F1880585E837
:101510000F006567A4F8986050B3BFF35B8F57E87E
:10152000003F47E80062002AF9D1BFF35B8F1849FA
:10153000D4F88850174A4FF400400F463146E5FB77
:10154000007100233846FEF72BFE0022CDE9000192
:10155000002304F1080003F057FF0F484FF0FF325B
:101560004FF0FF3303F0F2F800B12067246F9FE7DC
:101570000648FFF7D7FEF0E76FF00B0498E700BFCF
:101580004800002000700040A00000200000002063
:101590003F420F0040420F005C00002010B50E4B90
:1015A0000024C3F80441D3F80421C3F81041D3F850
:1015B00010211222C3F804230720FFF775FC2246EE
:1015C00001210720FFF7A0FC0448036D13B9483040
:1015D00003F096F8002010BD0070004000000020CD
:1015E00038B52F4BD3F80421002A4CD00022C3F881
:1015F0000421D3F804112B4C01219960C3F8002574
:10160000636F2546D3B3D4F88C30B4F8982033B147
:1016100004F174019847012814D0022828D0B4F8A6
:101620009830B4F894209A4222D90133A4F8983023
:101630001B4BD3F82C26D3F8341689B202EB4102A7
:10164000C3F82C26D4F8883023B9BDE838401548B3
:10165000FFF768BEBFF35B8F55E8003F5A1E45E8B1
:1016600000210029F8D1BFF35B8F012BEDDC38BDE1
:10167000D4F8883013B10C4805F043FD0B48BDE8A1
:10168000384003F03DB8D3F810110029EFD0C3F86B
:101690001021D3F8102101229A601A605A60E6E7FF
:1016A0000070004000000020080000205C000020C6
:1016B000084B70B5C31A0D4607499B1004465943A1
:1016C0000648402204F067FC2B4601462046BDE850
:1016D00070401847D4670020B76DDBB6DC7200009D
:1016E00073B50C4C0C4A4023041B00930D460B466B
:1016F0000A49A41061430646094804F079FC011E1A
:1017000005DA30462B4602B0BDE87040184702B0FB
:1017100070BD00BFD46700205D600000B76DDBB610
:10172000DC72000010B54FF02003EFF3118483F357
:101730001288BFF36F8F074A136823F00201DB079B
:10174000116002D4012005F0D6F984F31188BFF3AB
:101750006F8F10BD24680020002270B5012104465F
:101760001046FFF7D1FB114801F0D2FC104B984214
:1017700018D1206900F09CF901F0DCFC26690D49C4
:10178000304604F0CFFA00280BDB012535642469CC
:10179000084904F11C0004F0C5FA002801DBE564E7
:1017A000002070BD6FF00400FBE700BFED170000E4
:1017B0000000AD0B7875000070B501460C23094898
:1017C0004B43C418D4E90E56403300221844A26398
:1017D00004F0CEFB2DB132462B460348BDE87040E5
:1017E000184770BDD4670020DC720000012810B5D6
:1017F00004460AD004280CD078B9084B1B6C5B0750
:101800000BD1BDE81040FFF7D7BF00F05FF92046CD
:10181000F7E7BDE8104000F067B910BDD4670020BD
:1018200008B54FF02003EFF3118183F31288BFF363
:101830006F8F124A136843F002001060DA0708D471
:1018400081F31188BFF36F8F0120BDE8084001F0DC
:1018500083BC4FF08043D3F80C24D3F80C34DB075F
:10186000EED5074804F084FB81F31188BFF36F8F36
:101870000020BDE80840FFF79FBF00BF246800209C
:10188000146800207FB500230393059301ABCDE9D5
:10189000013301230493074A01AB04F0D8FB00286D
:1018A00005DB4FF48042002301A802F04FFF07B090
:1018B0005DF804FB75600000024AC3B21C2003FB04
:1018C00000207047D4670020F8B52849BFF35B8F2C
:1018D0000646012251E8003F41E800200028F9D1E6
:1018E000BFF35B8F33B9224922484B60CB608A60DB
:1018F00004F02BFA731E012B1DD805F053FA044691
:10190000D0B91D4B1B78BBB14FF080430222C3F806
:10191000082305464FF08047D7F81824D7F8183425
:10192000D20313D59B0701D0012E0FD1C4B185F38B
:101930001188BFF36F8FF8BD4FF02003EFF31185CF
:1019400083F31288BFF36F8F0124E3E71CB12846AD
:10195000FFF77AFBE0E70021212003F057FBDBE7EC
:101960004FF080430222C3F80423E4E7D06700204D
:10197000C0670020F0670020666E00200D4BBFF3AB
:101980005B8F012253E8001F002903D143E80020A8
:101990000028F7D1BFF35B8F0AD107490023CB6042
:1019A000064B4B6003238B60054B186804F0CDB9E0
:1019B000704700BF446800202C680020851A000092
:1019C0002868002007B500220023CDE9002308483D
:1019D0004FF40032002303F017FD064B186804F0A3
:1019E0000CFA054B00221A6003B05DF804FB00BF3F
:1019F000C01600202868002044680020F7B51C4E5F
:101A00001C4CB7681C4DFB683A213046984740B1E2
:101A1000002323702B8001F0F1FB0123237003B01E
:101A2000F0BD0C213B696A46304698470028EFD14B
:101A3000124A019B93FBF2F3009A217803EB820395
:101A40001BB2B5F900200029E4D09A1A002AB8BFC9
:101A5000524212B2012ADDDC094A1368013901330E
:101A60002170136003B0BDE8F040FFF7ABBF00BFCB
:101A70007C730000136A0020106A002090D00300DD
:101A80003C68002008B5074805F07DF928B901F049
:101A9000B5FB054B01221A7008BDBDE8084003489C
:101AA00002F090BF7C730000136A0020DC0000206D
:101AB000034B044A186000231360034A1360704705
:101AC00028680020406800203C680020024B00226B
:101AD0001A70FFF753BF00BF136A0020014805F0DA
:101AE00010BB00BFC0160020024A13680133136008
:101AF000FFF768BF4068002008B5074805F043F9C4
:101B000038B10648FFF7D8FB0448FEF7EBFD00208C
:101B100008BD6FF01200FBE718730000211B0000E6
:101B20000A2838B5074D044604D1AB680D215B681F
:101B300028469847AB6803485B68E1B2984720465F
:101B400038BD00BF18730000F0B54068057B01F098
:101B50001F0444EA4514056987B0002D64D0B2F52E
:101B6000001F00F1100506D12146284605F054F863
:101B7000002007B0F0BD01AE0027B2F5800F01973D
:101B8000776039D1B3F1007F14BF052304238DF8AA
:101B900004300023CDE904630393836823FA01F141
:101BA00011F001011AD1B2F1A07F17D104F01F0387
:101BB000620903F5E0732AD0012A3BD11F4A52F88B
:101BC0002330DB070AD40DF10306324621462846AE
:101BD00001F0E0FD1A4B98421CD0029603AA214660
:101BE000284601F099FC174B984220D1012221464A
:101BF000284601F037FEBBE7B3F1C06F05D0B3F163
:101C0000007F14BF01230223C1E70323BFE74FF086
:101C1000A042D4E73146284601F01EFE094B984207
:101C2000DBD06FF00B00A4E76FF08500A1E76FF049
:101C300015009EE751F82330FFDE00BF000300507F
:101C40000400AD0B0000AD0B38B545682B69B3B18E
:101C50001035284601F0F0FD044680B901462846BB
:101C600001F0B2FD084B98420BD1084922462846A4
:101C700001F08AFD224605210620FFF745F90020E4
:101C800038BD6FF00400FBE70000AD0B911C0000B5
:101C9000420970B5034602D0012A17D070BD0D4E1F
:101CA000326951680029F9D003F01F0301250C683F
:101CB0009D400029F2D08A682A4002D04B68304605
:101CC00098472CB1236821461C46F2E7024EE7E70D
:101CD0002346F8E704730000F07200002DE9F0439A
:101CE000466840F20635D006337B87B002EA050528
:101CF00054BFC2F34010032001F01F07B5F5837FE6
:101D0000144647EA43178DF8030044D00FD8062D38
:101D100018D007D8B5B1022D3FD06FF0150007B02D
:101D2000BDE8F083B5F5807FF7D101250AE040F2E8
:101D30000222954233D0B5F5407F32D0B5F5007F11
:101D4000EBD1022522032ED5726801238B40C2F805
:101D50000835326992BB07F01F037F092BD0012F92
:101D600079D13F4A02EB830284F48033D2F8001722
:101D7000C3F30043C4F3404444EA430421F4E16163
:101D800044EA800421F0070144EA05230B43C2F82A
:101D900000370020C3E70725D4E70425D2E705254F
:101DA000D0E70325CEE7630341BF012372688B4070
:101DB000C2F80C35CDE74FF0A042D3E710360DF155
:101DC00002023946304601F0E5FC14F4403F8046FB
:101DD0000CD13946304604F01DFF224B9845D8D12E
:101DE0009DF80210304601F031FDD2E701AB4FF013
:101DF000000903AA39463046CDE90439CDE90199F5
:101E0000CDF80C9001F088FB164B984285D114F464
:101E1000003315D09DF803308DF80E3084F48034F3
:101E2000C4F300444B4603AA394630468DF80C50A3
:101E30008DF80D4001F02AFC0A4B9842CDD06CE79A
:101E4000CDE9043303AA0DF1030339463046039369
:101E500001F062FBF0E703F5E07352F82330FFDE98
:101E6000000300500000AD0B036803F01F025B0984
:101E7000026004D0012B034818BF002070474FF0C8
:101E8000A0407047000300502DE9F04FDFF85C815F
:101E9000DFF85C9185B01546824600EB8101514523
:101EA00003D1002005B0BDE8F08FDAF80030D80487
:101EB000C3F3432203F07F0400F192807F2C4FEAAA
:101EC000134318F8027008BF4FF0FF34192B00F2CB
:101ED0008A80DFE803F00D141A1D20261D888888EB
:101EE000883763888888888888888888667C7F8225
:101EF000C5F80C45621C5ED10AF1040ACFE7C5F8AB
:101F00001445631CF8D000265FE0C5F80845F1E7EA
:101F1000C5F81045F5E7661CC5F80845ECD0002665
:101F200004E0601CC5F80C45E6D0012603A8039424
:101F3000FFF79AFF039B4FF0010B0BFA03F3C0F876
:101F40000C3508E0C5F80845002FDAD1631CD3D062
:101F50000026B3460627DAF80030019303F4005256
:101F6000002A03A81CBF4FF0000B01260394FFF7C3
:101F70007BFF039A019B00EB8200C3F3C114D0F8EE
:101F800000273B0243EA840343EA0B0302EA090207
:101F9000134343EA4603C0F80037ADE7C5F80C45E4
:101FA000D2E7C5F86045621CDAF80030A4D0C3F36C
:101FB0008033002BB9D003A80394FFF755FF039B90
:101FC000012606FA03F3C0F80835B346C3E7C5F89F
:101FD0006445E8E7C5F86845E5E7C5F86C45E2E71C
:101FE0006FF015005EE76FF085005BE79578000005
:101FF000F0F8FCFF10B50E29036913D0102924D086
:102000000D2930D16421586A90FBF1F010605B6AB1
:1020100093FBF1F001FB103342F210714B4353601C
:10202000002010BD996A080A4FF47A71B0FBF1F0F4
:1020300010609B6A180ADBB24B431B0AB0FBF1F439
:1020400001FB140001FB0033E9E793F83410602929
:1020500009D1D96A890A1160DB6A0449C3F309030B
:102060004B439B0ADBE76FF08500DAE740420F0045
:1020700070B5044605694068836988B01B68984755
:102080000028C0F287806068012305F13402D02166
:1020900004F068F800287DDB95F83430563BDBB25D
:1020A0000A2B00F28D80484A42FA03F3DB0700F165
:1020B0008780B622E021606804F051F8204604F0E1
:1020C00057F8002866DB60682669182302AA882171
:1020D00004F048F800285DDBBDF808303380BDF817
:1020E0000A307380BDF80C30B380BDF80E30F38039
:1020F000BDF810303381BDF812307381BDF8143053
:10210000B381BDF81630F381BDF818303382BDF8C5
:102110001A307382BDF81C30B382BDF81E30F382D2
:1021200096F83430602B29D16068012306F118023B
:10213000A12104F017F800282CDB606807236A4609
:10214000E12104F00FF8002824DBBDF80030738390
:102150009DF8023033779DF804309DF8031003F0AA
:102160000F0242EA0112F2839DF805201B0943EA9F
:10217000021333849DF8063086F8223095F8343007
:102180006068602B08D060685722F42103F0E7FFF5
:10219000002808DA08B070BD0522F22103F0DFFF45
:1021A0000028F0DAF6E76068A822F52103F0D7FFEF
:1021B0000028EFDB2120002102F028FF0020E9E7C2
:1021C0006FF08500E6E700BFFAFBFFFF014B01223D
:1021D0001A60704700C000400C2903690BD1DB6A0C
:1021E000064907484B4393FBF0F100FB11331160A4
:1021F0005360002070476FF08500704790D0030057
:1022000040420F00044B00690022C3F80021D3F8BC
:10221000003102F075BA00BF00C000407FB505690B
:102220002B6B63B33A2901D00C292BD105F114068D
:102230004FF0FF324FF0FF33304602F0E7F9134B17
:102240000193286B0323002469460394029303F04F
:102250007CFD4FF0FF324FF0FF33284602F076FA54
:10226000286B03F0CAFD0A4BD3F80825EA62012265
:102270005A60304602F08CF9204604B070BD6FF011
:102280000A00FAE76FF08500F7E700BFCD210000F4
:1022900000C0004010B504690020FFF70DFB20636B
:1022A0004FF0FF320021204604F0A1FD04F114009C
:1022B00004F096FD002201210C20FEF725FE0C20E3
:1022C000FEF7F2FD024B0122C3F80423002010BDEB
:1022D00000C000402DE9F7430646002201210220FC
:1022E000FEF712FE0220FEF7DFFD776835693C68D5
:1022F0004FF00008C4F800852E60D7F80C9001AAB2
:102300004146484603F018FF00283FDB019BD9F8FF
:10231000002019791868FFF7B7FD002836DB6B7AC3
:10232000D6F810C0012B03D0032B2DD14FF010088D
:10233000AB7A032B28D195F80BE0BEF1000F02D049
:10234000BEF1010F20D12A7A012A22D0022A24D0FC
:10235000D2B910466B687168B3F5164F096800F082
:10236000BA803AD8B3F5165F00F0B88020D8B3F53C
:10237000966F00F0B58012D8B3F5967F00F0B38069
:10238000B3F5167F00F0B2806FF0850003B0BDE8B2
:10239000F0834FF480700E22DCE70020FBE7B3F5FA
:1023A000166F00F0A680B3F5965FEDD15D4B43E06C
:1023B000B3F5E14F00F0A08008D8B3F5615F00F0FD
:1023C0009D80B3F5964FDFD1574B35E047F6122984
:1023D0004B45D9D14FF400032EE0B3F5613F00F037
:1023E0008F8015D8B3F5963F00F08D800AD84DF652
:1023F000C0294B4500F08980B3F5614FC4D14FF43B
:102400006B0319E0B3F5E13FBED14FF0EB7313E07E
:10241000B3F5612F7CD009D8DFF810914B457AD005
:10242000B3F5E12FB0D14FF0E86305E0DFF800919C
:102430004B45A9D14FF08053C1F82435736840EA69
:102440000E001B6842EA08021043C3F86C05D5E988
:1024500001010CF1040383E803007B68990712D59E
:1024600005F11C0001F02AFB324B984256D1287F1F
:1024700004F10C0204F5907104F0D9FA2B7F0120CD
:10248000984000F03FFE0823C4F800353B7A53B96A
:10249000C4F81031D4F81031AB69C4F834350123D5
:1024A000C4F8383523607B689A075CBF4FF48073AB
:1024B000C4F804337B68DB0644BF4FF48003C4F8E0
:1024C00004336B69C4F8443500200123C4F848057F
:1024D000A360E3605AE74FF41D03ADE7164BABE78B
:1024E0004FF49E23A8E74FF4A033A5E74FF41C3325
:1024F000A2E74FF41D239FE7104B9DE7104B9BE78E
:102500004FF06C7398E70F4B96E74FF4650393E732
:102510004FF0706390E74FF080638DE76FF0040039
:1025200034E700BF00B0130000A04E0090D00300BD
:1025300040420F000000AD0B0050270000C07500A6
:1025400000F03A0000903A01F8B5044607690D46DC
:1025500004F028FCB0B9214B1B789BB1642660685D
:1025600004F05FF800BB012004F05FFA013EF6D1F1
:102570000021212002F04AFDF0E781F31188BFF32A
:102580006F8FF5E74FF02003EFF3118183F312888B
:10259000BFF36F8F60680E4604F043F890B981F383
:1025A0001188BFF36F8FEDE74FF02003EFF3118138
:1025B00083F31288BFF36F8F60680E4604F031F822
:1025C0000028DAD07B691D7079690122204603F06A
:1025D00068FF86F31188BFF36F8FF8BD666E002029
:1025E0002DE9FF410569D0F80480AB6D0746286DE1
:1025F00000283AD16BB3B8F83840EA6C6E6D9C4253
:1026000028BF1C466B6D53B1A96D41B106F0604106
:10261000B1F1005F03D0082CEE6E28BF08240092B1
:10262000EA6C2C661AB12A6D002A18BF2246CDE941
:1026300001261BB1AB6D002B18BF23460022694653
:102640004046039301F084FC184B98420AD06FF087
:1026500004033C69A36304F1240002F051F8002351
:1026600084F8643004B0BDE8F081E96C6E6DB8F8B0
:1026700038400A46ABB1834228BF03469C4228BF7C
:102680001C460029BED001F06043B3F1005FB9D011
:10269000082C28BF08242246A86E04F0C2FDAA6EAA
:1026A000B0E7844228BF0446EBE700BF0000AD0B53
:1026B0002DE9F04F8FB09946436801938B880469E8
:1026C0000E4699040746924600F139814FF0FF32D9
:1026D0004FF0FF3304F1100002F038F86660D7F8CD
:1026E00004B0D7F81080DBF80830039398F8653011
:1026F00023B1D8F800309E4200F08A80B6F804E09A
:102700001EF4006F40F053811EF0090F40F04C8121
:10271000CEF34513082B40F0478133680293029AA9
:10272000B84B9A4240F240810BF10C0CBCE80F0010
:1027300004AD0FC5BCE80F000FC5DDE902329A42B7
:1027400028BF1A469CE80300AF4B9A4285E8030075
:102750001BD2AE4B9A4218D2AD4B9A4215D2AD4B1A
:102760009A4200F2F580AC4B9A4200F2F380AB4BF8
:102770009A4200F2F180AA4B9A4200F2EF80A948F7
:10278000A94BAA49824288BF0B461EF0020F09934B
:102790000EF0040300F0E480002B14BF0323022397
:1027A0008DF82830CEF300138DF82930DBF8003097
:1027B000D3F808351EF0020F4FEA5312CEF3400152
:1027C00003F01F0340F0D380002A00F0CD80012ADF
:1027D00040F010819649012202FA03F3C1F80C354A
:1027E00098F865302BB1584601F06AFB002388F851
:1027F000653043468F4A04A9584601F02DFB8E4BA5
:10280000984240F0C180012388F86530C8F8006024
:10281000012384F86430019B196C4A1C03D003F136
:10282000440004F0C5F8BAF1000F40F0C380C4F8CA
:102830003CA00023236404F1500204F1400104F1A0
:102840003C0003F0A4FFE064B9F1000F40F0BB804E
:10285000C4F844900023A36404F1580204F1480131
:1028600004F1440003F093FF606520680023A36334
:1028700048B183683BB10121083003F09BFF236816
:10288000186904F07BFA3846FFF7AAFE0022206C94
:102890001346834240F0A0800023A56C1946A9424C
:1028A00040F0A1809342264638BF13464FF4FA52B7
:1028B00002FB03F556F8243B4FF000081B68B5FBFC
:1028C000F3F54FF4004CC835414640F2E7304FF481
:1028D0007A720023E5FB0C01FDF762FC02460B4611
:1028E000304601F033FF18B9A56B15F1740F13D101
:1028F0000198C4F8608001F0E3FA84F865803F69CC
:102900006FF07305BD6307F1240001F0F9FE87F84D
:102910006480304601F042FF2368002B36D09A686D
:10292000002A33D0998811F480562FD1186904F009
:1029300025FA20683146083003F03CFF26E0A36901
:10294000002B7FF4C3AE63689E427FF4BFAEC6E641
:102950003A4B1AE73A4B18E73A4B16E73A4B14E76B
:10296000003B18BF01231BE74FF0A04133E742B102
:10297000012A42D12E49012202FA03F3C1F8083597
:102980002EE74FF0A041F6E76FF0040523689B881F
:1029900013F4005304D1636004F1100001F0B0FEA1
:1029A00028460FB0BDE8F08F6FF01505EEE76FF029
:1029B0008505EBE7DAF80030E363002B3FF439AF2D
:1029C000DAF8043036E7D9F800306364002B3FF4BE
:1029D00041AFD9F804303EE7E16B01EBC3010133AD
:1029E00049680A4455E7606C00EBC100013140685A
:1029F000034454E7C1F80C15FFDE0023C3F8083583
:102A0000FAE700BF47E801000048E8010024F400AD
:102A100000127A00FF083D007F841E003F420F0035
:102A20001FA107008FD0030048E8010090D00300E9
:102A300000030050F76800000000AD0B00093D00E6
:102A400080841E0040420F0020A1070000F01F02FA
:102A500040090DD001280ED10A4B03EB82030A4A2C
:102A6000D3F80007024042EA8102C3F8002770470A
:102A70004FF0A043F1E702F5E072002353F8223053
:102A8000FFDE00BF00030050F0F8FCFFF0B587B098
:102A900001238DF8023002238DF804306B44039338
:102AA0000F4601AB0DF1030100240493054602918A
:102AB000059400F0D1FE0C4B984206460FD103AAB4
:102AC0003946284600F028FDB0420BD09DF803108F
:102AD000284600F0BBFE6FF0040007B0F0BD6FF0B9
:102AE0001200FAE72046F8E70000AD0B70B50123AD
:102AF00083400E4ABFF35B8FDC4352E8001F01EABC
:102B0000040542E80056002EF7D1BFF35B8F4FF467
:102B1000803282400648C0F80823BFF35F8FBFF3BE
:102B20006F8F0B4214BF0120002070BDD0680020C1
:102B30000010014070B40E49D1E90034D01AC31816
:102B400044F1000422F07F46C1E90034A6F50013E9
:102B5000B3F5400F09D2074B1B681A0A1B069C19D4
:102B6000054B42F10005C3E9004570BC02F056BBBD
:102B700010170020D46800201817002011B3BFF3ED
:102B80005B8F0123104A834052E800CF4CEA030CCC
:102B900042E800C10029F7D1BFF35B8F0B4A4FF425
:102BA00080338340C2F80433094BBFF35B8F1B684B
:102BB000BFF35B8FC340DB0742BF064B4FF40032CD
:102BC000C3F80021704700BFD0680020001001400A
:102BD000CC68002000E100E00D4B1868010A0006F7
:102BE000BFF35F8F0B4BD3F80435181841F1000188
:102BF000B3F5801F0AD2084BD3E90023904271EB52
:102C0000030303D210F1807041F10001704700BF4F
:102C1000D468002000100140181700202DE9F04F63
:102C200085B016461F469DF840A00446FFF75EFF9C
:102C30000190FFF7D1FFB04271EB070354D23E4B36
:102C4000301A67EB0101984271F100014FD23B4B02
:102C500003EB0413D3E902239F4208BF96425ED0E0
:102C600037494FF4803804F1500508FA04F8AD00F4
:102C7000C1F848832046ADB203F0C2FE26F07F4B78
:102C800005F1804504F5A87305F58835DC464FF05D
:102C900003090293029A2CF07F4341F82230C1F8D5
:102CA0004483D1F80435274A6FF00200C01A60440B
:102CB00020F07F40904232D9286868B1D1F80435BD
:102CC0000393A3EB0B0020F07F40B0F5000F26D953
:102CD000204603F095FE039BBAF1000F07D109EBE4
:102CE000030C09F10109D5E7BAF1000F09D06FF023
:102CF000150520460199FFF741FF284605B0BDE8BC
:102D0000F08F0123104ABFF35B8FA34052E8000FFE
:102D1000184342E800010029F8D1BFF35B8F07494F
:102D20000E98230101EB0412C8500F9B5360C2E9B7
:102D300002670025DDE700BF0100800000170020CA
:102D400000100140FDFF7F00CC6800207FB51C4CC7
:102D50001C4BC4F80833C4F848331B4B00254FF014
:102D6000FF304FF0FF31C4F80855C3E902014FF4BA
:102D70008033C4F80433154B02264FF4003201218E
:102D8000C4F804631120C3F880212A46FEF7BCF87A
:102D90001120FEF789F80E4A0123A3602360136017
:102DA0000C4B0D4A0093CDE9015500232846FFF74F
:102DB00035FF3046FEF788FD284604B070BD00BFE1
:102DC0000010014003000F000017002000E100E0A8
:102DD000D0680020352B0000FFFF7F002DE9F7436E
:102DE0002F4CD4F8043399070BD5D4F8043143B1F0
:102DF0002C4A0023C4F80431D4F804311368013399
:102E00001360D4F80433DA032AD5BFF35B8F264B63
:102E100053E8002F22F0010143E800100028F7D109
:102E2000BFF35B8FD30702D4D4F84031C3B1002580
:102E3000C4F84051D4F84031FFF7CEFE4FF02003E4
:102E4000EFF3118283F31288BFF36F8F174BD3E92F
:102E50000267B042B94106D282F31188BFF36F8F87
:102E600003B0BDE8F0834FF0FF384FF0FF39C3E9FE
:102E70000289D3E900101D604FF48033C4F8483351
:102E8000C4F84051D4F8403182F31188BFF36F8FFA
:102E90000029E5D0009032463B4628468847DFE7C8
:102EA00000100140D4680020CC68002000170020EA
:102EB00030B5431C124C85B005D08442A8BF0446EF
:102EC000012CB8BF0124FFF787FE0E4B0C4DD3E950
:102ED0000013401AB0F5000F10D22218AA4228BFE2
:102EE0002A4652184FF0000007490091CDE9010031
:102EF00043F10003FFF792FE05B030BD2A46F0E72C
:102F0000FFFF7F0010170020352B000008B5FFF7EA
:102F100063FE024B1B68C01A08BD00BF10170020DB
:102F2000024AD2F80034002BFBD0704700E0014089
:102F300010B54FF08053D3F830210D2A55D14FF002
:102F400080410022C1F80C21C1F81021C1F83825B8
:102F5000464AD3F80404C2F82005D3F80804C2F89E
:102F60002405D3F80C04C2F82805D3F81004C2F8DD
:102F70002C05D3F81404C2F83005D3F81804C2F8AD
:102F80003405D3F81C04C2F84005D3F82004C2F875
:102F90004405D3F82404C2F84805D3F82804C2F83D
:102FA0004C05D3F82C04C2F85005D3F83004C2F80D
:102FB0005405D3F83404C2F86005D3F83804C2F8D5
:102FC0006405D3F83C04C2F86805D3F84004C2F89D
:102FD0006C05D3F84434C2F87035D1F80034DB07FF
:102FE00009D56FF00103C1F800344FF08053D3F8D6
:102FF00030310D2B0CD14FF08053D3F834313BB12D
:103000004FF01023D3F808224FF08043C3F858251F
:103010004FF01023D3F80022002A03DBD3F8043248
:10302000002B22DA124901234FF01020C1F8043599
:103030001224FFF775FFC0F80042FFF771FFC0F8D8
:103040000442FFF76DFF0023C1F80435FFF768FF66
:10305000BFF34F8F0749084BCA6802F4E06213437D
:10306000CB60BFF34F8F00BFFDE710BD00C0004035
:1030700000E0014000ED00E00400FA0530B504680E
:10308000CCB1BFF35B8FB4FA84F3C3F11F03DBB29F
:1030900001229A4024EA020250E8005FA54204D1CE
:1030A00040E8002CBCF1000FF6D1BFF35B8FE6D1F6
:1030B00002480B7030BD0248FCE700BF0000AD0BBA
:1030C0000200AD0B10B50368CB40DB0714D401231D
:1030D0008B400268BFF35B8F43EA020150E8004F68
:1030E000944204D140E8001CBCF1000FF6D1BFF3BC
:1030F0005B8FEED1014810BD0148FCE70000AD0B2D
:103100000400AD0B014BC3F80405704700F001400B
:10311000054B1A792AB95A71012218601A710348AD
:1031200070470348704700BFD86800200000AD0B0F
:103130000C00AD0B08B5074B1B682BB10020FDF749
:10314000D5FE08B9FDF7B0FE4FF080430022C3F86A
:10315000182508BDD868002010B510B1012840D04E
:1031600010BD4FF08043D3F81814D3F81824CC03C3
:103170001ED5900702D0002003F063FC4FF080437F
:103180000022C3F81825022008224FF4827303F1AD
:1031900080430021196002F180421C680124146000
:1031A000154A12680AB34FF08043C3F80403D7E707
:1031B000D3F81424D107E1D5D3F81C249207DAD12F
:1031C0000D4A12681AB10222C3F80423C8E7D3F8E3
:1031D0000421002AFBD00022C3F80421D3F80431D3
:1031E000BEE700224FF48073D1E71A68002AFCD0B2
:1031F00019601B68B4E700BFD86800204FF0804317
:10320000D3F80C14D3F80C24C80322D5D10720D549
:10321000D3F81824D2031CD5104A517901F0FF00CD
:10322000C9B9C3F80C01D3F80C110121517119610E
:10323000126822B10822C3F8042309487047D3F862
:103240000C21002AFBD00022C3F80C21D3F80C314A
:10325000F3E7044870470448704700BFD86800206F
:103260000000AD0B0500AD0B0B00AD0B10B54FF022
:103270008043D3F8002152B10020C3F80001D3F8F5
:1032800000210122C3F80823164B1B6898474FF012
:103290008043D3F804215AB10022C3F80421D3F8A3
:1032A00004210222C3F808230E4B01201B68984713
:1032B0004FF08043D3F80C2192B1D3F804231207C6
:1032C0000ED50022C3F80C21D3F80C110821C3F845
:1032D0000813044B5A71BDE810401B6804201847BE
:1032E00010BD00BFD8680020036803F01F025B090F
:1032F000026004D0012B034818BF002070474FF034
:10330000A040704700030050034A430900F01F002B
:10331000D35C1844C0B27047D978000070B5054638
:10332000FFF7F2FF0C4C08300E4634F81030DA0587
:1033300008D5C3F3432304EBC302284654F83330C3
:1033400052689847A3682BB1E26831462846BDE829
:103350007040184770BD00BF0002002008B5FFF79D
:10336000D3FF034B083033F81000400B08BD00BFFB
:103370000002002008B5FFF7C7FF034B083033F801
:103380001000C0F3400008BD0002002008B5FFF7A0
:10339000BBFF034B083033F81000C0F3401008BDEA
:1033A00000020020034611F0010010B5CCB20DD18F
:1033B000A207C4F3400012D5094AD2F8200558608C
:1033C000C2F82005003818BF012008E04FF0A041E6
:1033D000D1F820251A60C1F82025002AE8D010BDB8
:1033E0000003005010B5FFF78FFF124A083032F883
:1033F0001030D9051CD5C3F3432123F4F85322F828
:10340000103002F10E04002034F8023F13F4807FE4
:1034100003D0C3F3432399420AD001302A28F3D1C1
:10342000002342F831300448BDE81040FFF74ABE9F
:1034300010BD00BF000200206C020020F0B5054660
:1034400000200446012607468C420BD1114BD3F8CD
:103450007C2132B10022C3F87C21D3F87C3140F0CA
:103460000040F0BDE3B29B0003F580729B0806FAB2
:1034700003F31D420BD002F1804202F5C042D2F8A4
:1034800000C0BCF1000F02D017601268184301346D
:10349000DAE700BF00600040F7B506460846FFF7D0
:1034A00033FF194F00F108050C4637F81530DB07DC
:1034B00027D5304603F08AFB2046FFF767FF40B16F
:1034C0002046FFF74BFF316800F5A270002341F85A
:1034D00020302046FFF786FF002301A827F815308B
:1034E0000194FFF701FF019B00EB8300074BD0F82D
:1034F0000027134043F00203C0F80037044803B02C
:10350000F0BD0448FBE700BF00020020F0F8FCFF1C
:103510000000AD0B0400AD0B2DE9FF4116468046BF
:103520000846FFF7F1FE0D463168044609B3284608
:10353000FFF720FF18B12846FFF728FF10BB002334
:10354000CDE900338DF80E308DF80F300DF10F02FC
:103550000B4628460DF10E0103F0CFFA474A04F15D
:10356000080132F8113023F0020343F0010322F87E
:103570001130736863B328461F785968FFF7FAFE65
:1035800010B1D1B13E4826E03C4A04F1080032F8BF
:10359000103023F02003DB04DB0C22F8103061B183
:1035A000032FEFD87168496891F800C0D8F800106F
:1035B000A7B90CF5A27C41F82C70304A04F108013F
:1035C00032F8113023F01C0343EA870322F811304C
:1035D000B3684BBB2B4804B0BDE8F08101EB8C0114
:1035E00043EA4C33D1F810E52EF0030EC1F810E594
:1035F000D8F8001001EB8C0E43F02003DEF8101514
:1036000022F8103021F44F3121F44071CEF810151A
:103610002902DEF8108501F47C5141EA074141EAB4
:103620000801CEF81015C8E7D3E900672846FFF770
:10363000D9FE002ECED0114DD5E90023964203D1FC
:103640009F4201D1002209E00F480DF10F01FFF761
:1036500015FD0C4B9842BED19DF80F2045F8326005
:1036600005EBC20308345F6035F8143043EA4223A7
:1036700043F4807325F81430ACE700BF000200204B
:103680000400AD0B0000AD0B6C0200202DE9F043EF
:103690000C4685B08046204611461E46FFF734FE94
:1036A000054629B32046FFF765FE18B92046FFF707
:1036B0006DFE18BB314F05F1080937F8193013F0CA
:1036C0001C0F02D04B78012B18D001238DF80F303E
:1036D0000023CDE900134A1C8B1C20460DF10F017D
:1036E00003F00BFA37F8193043F0030327F81930C9
:1036F000002E41D02046FFF73DFE18B9204805B006
:10370000BDE8F08396F800C0D8F800301B4F0CF5E8
:10371000A272002143F8221005F1080237F81210B6
:1037200021F02001C904C90C27F8121075781DB3C7
:10373000D8F80000B67800EB8C002D04D0F81035D6
:1037400023F4991323F4F853C0F81035230203F43B
:103750007C5305F440353605D0F810E52B4306F4CC
:10376000801641EA4C31334341F0200143EA0E0315
:1037700027F81210C0F810350248C0E700020020F8
:103780000400AD0B0000AD0B014BC3E90212704702
:103790000002002010B508461446FFF7F7FD50B1AF
:1037A0000846FFF7B1FD054B083033F810300448E8
:1037B0005B0B237010BD0348FCE700BF0002002034
:1037C0000000AD0B0400AD0B70B5184E96F87440B8
:1037D00005464CBB2146542206F1100003F02FFD94
:1037E0002D68706E2146884212D10023C5F87C31C5
:1037F00045F30730D5F87C31FDF756FB4FF0004319
:10380000C5F804330A48012386F87430F36670BDA6
:10381000CBB29B0003F580727C2B08BFAC5001F14A
:10382000010108BFAB58DEE70248F0E700020020C4
:103830000000AD0B0C00AD0B034B93F87400003887
:1038400018BF0120704700BF000200200148FFF7A9
:1038500039BC00BF680200200148FFF70FBC00BF61
:103860006802002073B5054608460C461646FFF769
:103870008DFD00B30846FFF77DFD0146D8B920460F
:10388000FFF76CFD04B2A40004F5807203462868BB
:103890008150296882582144D1F8102542F0010254
:1038A000C1F810252EB12968012202FA03F3C1F8EC
:1038B000043302B070BD2046FFF726FD0F4B0830E1
:1038C00033F81030C3F38203042B12D0052B12D02F
:1038D00001A80194FFF708FD019AD0F81035D340F4
:1038E00003F00103991C204602B0BDE8704003F0CC
:1038F0004DB90321F7E70221F5E700BF00020020E0
:103900002DE9F04F694BDFF8A881D3F80403D8F80C
:103910006410C0B289B040F00040FFF78FFD051E73
:103920002FDAC24600235AF8701F06A8CDE90633E5
:10393000FFF738FD5F4B01930DF118094FF0000BB5
:10394000019A12F8013B0192DA0803F007031AF812
:10395000022022FA03F3DA071CD409F10409BBF1AF
:10396000000F14D0D8F864104FF00040FFF766FD48
:10397000D8F8701006A8FFF715FD0028DAD125F059
:1039800000450124002D79D109B0BDE8F08F4FF03A
:10399000010BD5E7484B5B440293D9F8001000298E
:1039A000DBD0029B91FAA1F11C78B1FA81F141EAD6
:1039B00044142046FFF7A8FC0830059438F810702E
:1039C000C808BB0819F80020039301F00701012380
:1039D00003FA01F122EA010209F8002005A8FFF725
:1039E00083FC059A039B02F5E072C7F3820650F848
:1039F00022205B073746C2F3014224D520463946D0
:103A0000D6B2FFF78BFC05A80594FFF76DFC059B6C
:103A100003F5E07350F82330C3F301439E4207D10E
:103A20000021204603F0B2F83146204603F0AEF8FC
:103A300005A80594FFF758FC059B012202FA03F341
:103A4000C0F82035A9E7022A0CD10321204603F053
:103A50009DF806F00503012BEAD139462046FFF711
:103A60005DFCE5E702212046039203F08FF8032E68
:103A7000F3D0039A032ADBD1022EEDE795FAA5F3E2
:103A8000B3FA83F304FA03F29B0003F1804303F5D6
:103A9000C04325EA0205D3F81005D3F81015C0F38A
:103AA0000520C1F30141FFF739FC6BE700600040DE
:103AB00000020020E9780000E97800000146014892
:103AC000FFF7DCBA78020020036803F01F025B09ED
:103AD000026004D0012B034818BF002070474FF04C
:103AE000A04070470003005073B51646421C1C46A8
:103AF0000546069B18D0012902D1BBB103F0E4F8BA
:103B000001A80195FFF7E0FF019B00EB8300240271
:103B1000D0F80027074B44EA86040C4313401C43AB
:103B200044EA4101C0F8001702B070BD03F0D9F8B3
:103B3000E6E700BFF0F8FCFF4B69184A934221D03A
:103B40000DD8174A93421DD007D8164A934219D070
:103B5000154A934216D015487047154AF9E7154A99
:103B6000934208D004D8144A93420BD0134AF0E78A
:103B7000134A9342EFD10279124B1348002A08BF2F
:103B80001846704791F8213013B1CB680133F2D158
:103B9000CB690133EFD10C48704700BF80841E0011
:103BA00020A1070048E8010090D003000400AD0BFD
:103BB00040420F000024F40000093D0000127A008A
:103BC0000048E8010300AD0B0000AD0B2DE9F04FFC
:103BD0008C4B4D6990F804909D4287B006460C4688
:103BE00000F0E88000F2D880874B9D4200F0E5802D
:103BF00000F2CA80854B9D4200F0E280844B9D42DA
:103C00000CBF4FF080654FF08045824F94F8230041
:103C1000242202FB0973997F60F3000199773379BD
:103C2000217C02FB0373D97794F82380B8F1000F4D
:103C300034D16269784B9A420CBF4FF0030A4FF0BF
:103C4000000A237E012B94BF0023012300932068E8
:103C5000534642460121FFF747FFCDF800806068D8
:103C6000534642460121FFF73FFFCDF80080A27E78
:103C7000A06853464146FFF737FF237C83F00103DA
:103C80000093E068534642460121FFF72DFF0121D2
:103C90000091E06953464246FFF726FF317994F8D8
:103CA0002130002900F09580002B00F09280242222
:103CB00002FB09724FF0FF30106294F82100627E1F
:103CC00094F8129094F818E0D4F81CC004920028DC
:103CD00000F08980E06894F8108094F822B094F89D
:103CE00020A0CDF8148029B1002B7FD11CF1010157
:103CF00018BF012194F824803368B8F1000F0CD16B
:103D00002268029262680392029AA468C3F80825A6
:103D1000039AC3F80C25C3F81045049AC3F8C0955C
:103D2000003A18BF0122BEF1020FC3F824555FD03C
:103D3000BEF1030F5FD0BEF1010F01D142F00202CC
:103D4000C3F8542591B1B8F1000F0DD1BCF1FF3F7C
:103D500018BFC3F86CC5421C1FBF059AC3F81405F1
:103D6000C3F86825C3F864B5C3F860A53379242285
:103D70005343FB58002B41D0306840F3073007B065
:103D8000BDE8F04FFDF790B8244B9D420CBF4FF0BB
:103D900080554FF0804538E7214B9D4213D01E4B94
:103DA0009D4213D01F4B9D420CBF4FF000454FF07A
:103DB00080452AE74FF0005527E74FF0006524E7DC
:103DC0004FF0007521E74FF020651EE74FF0A0553A
:103DD0001BE7242000FB0979E268C9F82020227C37
:103DE00089F81F2069E74FF0FF3074E7012181E770
:103DF00042F00402A4E742F00602A1E707B0BDE8E2
:103E0000F08F00BF80841E0020A1070048E8010059
:103E100090D00300E06800200048E80140420F0015
:103E20000024F40000127A00431C07B50ED0019064
:103E300001A8FFF749FE019B00EB8300054BD0F87A
:103E40000027134043F00203C0F8003703B05DF8C9
:103E500004FB00BFF0F8FCFF2DE9F04790F8049058
:103E6000144C242505FB09F504EB050A1F469AF8B6
:103E70001C3006469046D3B961B96251CAF8047045
:103E8000242303FB0944002363770B480123237792
:103E9000BDE8F087FFF750FE074B9842F8D1304657
:103EA00044F80580CAF80470FFF790FEE8E703487D
:103EB000EEE700BFE06800200000AD0B0C00AD0B8A
:103EC0002DE9F0410446067900681F4D40F30730A4
:103ED000FCF7F8FF24237343EB5853B123681B4AC4
:103EE000C3F8082306EBC601206805EB810102F048
:103EF00005FF2421236801FB0651D3F80805D3F8F8
:103F00000C75D3F810858B7FDB0716D4FFF78CFF79
:103F10004046FFF789FF3846FFF786FF086AFFF73C
:103F200083FF23794BB12368D3F86C05D3F81415BC
:103F3000FFF77AFF0846FFF777FF242303FB0655B8
:103F400000232B77BDE8F081E068002052010800D3
:103F50002DE9F0430779534D24237B439046EA181B
:103F60000E46517F85B08146002940F09980EB587C
:103F700023B118F0140F04BF0123537796E80F0004
:103F8000242404FB075404F10C0C8CE80F00206A75
:103F9000431C03D0E37FD3B102F096FE3368D9F817
:103FA000004023B103F06043B3F1005F06D1B36872
:103FB00083B103F06043B3F1005F0BD0242303FB14
:103FC0000753002238485A7705B0BDE8F08302F065
:103FD00088FEE3E718F0010318BF0123C4F8503549
:103FE00018F0020318BF0123C4F8403596E80F000B
:103FF000EC468CE80F00039BC4F84405C4F8481550
:10400000C4F83425C4F838350023C4F81831D4F87E
:1040100018310723C4F8003524237B4318F0080F18
:1040200005EB03021DD1E8580121216158B9D4F8EC
:104030001831002BFBD062464021204602F006FEDC
:1040400024237B43EA18EB5803BB106A411C12D1AE
:1040500007EBC70705EB8701204602F04FFE134828
:10406000B2E7EB5893B9106A431CF8D0D37F53B131
:1040700002F037FEF3E7D37F13B102F032FEE7E739
:1040800002F022FEE4E702F01FFEE8E718F0040F5A
:104090004FF0400314BFC4F80833C4F80433DEE71C
:1040A000034891E7E06800200A00AD0B0000AD0B6B
:1040B0000B00AD0B02494FF0402002F035BE00BFAF
:1040C000E06800200149024802F02EBE0469002089
:1040D00000F0024008B5144BA8220021184603F056
:1040E000AEF80322026111494261114A8161C26145
:1040F0004FF480620262002282624262C262016602
:104100000C4941661021816603460267C266426718
:10411000BFF35F8F084911F8010D98540132102A3E
:10412000F9D1BFF35F8F08BD28690020EB7800004C
:10413000666A0020566A00200479000038B54FF006
:104140002003EFF3118583F31288BFF36F8F064BC3
:104150009C6802F065FC85F31188BFF36F8F2046E1
:10416000BDE83840FCF722BED4690020104B70B582
:1041700053F82040013053F82060A64200D870BDAB
:10418000D4E9003595B153B12846984738B1002895
:10419000B8BF4042EB68FF28A8BFFF201870EA684C
:1041A000537843F0010353700834E6E79847FBE780
:1041B000CC77000008B50A4B012203201A70FFF7E4
:1041C000D5FF01F05BF90420FFF7D0FF00F094F970
:1041D000FCF750F9034A137B23F00103137308BD66
:1041E000666E0020D017002008B50348034A00215E
:1041F000121A02F0D3FD08BD00170020686E0020DF
:1042000070B51D4E1D4D1E4986B0B02303FB0066E0
:104210001C4B059301220F23CDE903320023CDE986
:104220000133142303FB005504464FF4C070164BB2
:1042300000954FF4A07200FB0411304600F0C6F860
:10424000737B124AEE6023F0040373734FF404632C
:1042500004FB033313446B600D4B2C74BFF35B8F73
:1042600053E8001F013143E80012002AF8D1BFF3E0
:104270005B8F06B070BD00BF20170020D4690020FE
:10428000C076002005790000B96D0000806E002026
:10429000D069002080B50020B2B0FFF767FF2D4B3A
:1042A00083F308882C4D2D4E6B692D4F43F400731A
:1042B0006B610024E02385F82230EC772C766C7655
:1042C000AC7685F820406B6A43F4E0236B6285F896
:1042D0002340FCF7D9FCFCF79FFE4FF0FF33AB62A5
:1042E000EB62FCF74FFFFCF7E3FE40F20113ADF881
:1042F000243006ABB360CDE92B442E9402F042FD8E
:104300000120FFF733FF0220164DFFF72FFF00F0CB
:10431000F3FD154B75610593012314490094CDE914
:10432000034342F228323B46CDE90144284600F0DF
:104330004DF86A7B064622F0040228466A7302F0B2
:10434000D3FD2046FFF75CFF3A4631462846FCF78E
:1043500043FE00BFC076002000ED00E0D4690020DD
:10436000B5410000D01700200A79000040780020F5
:104370004FF02003EFF3118183F31288BFF36F8FA7
:10438000094A136A834207D11B6F136281F31188B4
:10439000BFF36F8F70471346002BF7D01A6F82421E
:1043A000F9D1026F1A67F1E7D469002010B504460D
:1043B00008B9054B9C681F2204F1740002F0BEFE90
:1043C000002084F8930010BDD46900202DE9F04F3F
:1043D00085B09846D51D00F1580325F00705C0E9C2
:1043E0001633129B03730F46042305F14001002688
:1043F00007EB010A4373119B86605146C0E90666CC
:104400008373C6730446DDF838B0DDF84C90FCF7D2
:10441000B9FA07F140030730C4E9253520F0070059
:10442000109BC4F89C0002930F9BAAEB0005CDE9FA
:1044300000B32A46434639462046FCF799FD0F9BB8
:10444000A366109B6665C4E9188BE3664FF02002F3
:10445000EFF3118382F31288BFF36F8F0F4F3A6A25
:1044600022673C6283F31188BFF36F8FB9F1000FAD
:1044700011D01F22494604F1740002F05FFE84F857
:104480009360BB680BB1D3F8A030C4F8A0302846C5
:1044900005B0BDE8F08F84F87490F2E7D46900208D
:1044A000F0B587B000250595109D04950F9D0395E7
:1044B0000E9D0295DDE912760D9D01950C9D0095EE
:1044C0000446FFF783FFB6F1FF3F08BFB7F1FF3F98
:1044D00005D056EA070305D1204600F0BFFC204670
:1044E00007B0F0BD03493A46334604F1180000F026
:1044F0001FFEF4E7A76F000070B5224C224D86B076
:104500002646AE4204F130040AD300F0C5FC1D4C2F
:104510001E4EAC4220D306B0BDE8704000F0D0BCC7
:1045200054F80C3C059354F8103C049354F8143C94
:10453000039354F8183C029354F81C3C019354F82C
:10454000203C009354E90A2354E90C01FFF73EFF95
:1045500054F8303C5E65D3E7D4E90A23B3F1FF3F5A
:1045600008BFB2F1FF3F05D052EA0301206803D132
:1045700000F074FC3034CCE73146183000F0D8FD40
:10458000F8E700BF1075000010750000A76F00006D
:1045900038B58368044673B31A4A926893422DD1A2
:1045A000C368012B03D9013BC360002038BD4FF025
:1045B0002003EFF3118583F31288BFF36F8F016936
:1045C000806802F005FC204602F008FDA06060B1A2
:1045D00090F90E2022610022C0F8AC2002F084FC89
:1045E0000948294600F028FCDFE7E06085F31188E0
:1045F000BFF36F8FD9E76FF01500D7E74FF0FF30AB
:10460000D4E700BFD4690020676E00202DE9F34194
:10461000044617461E464FF02003EFF3118883F33C
:104620001288BFF36F8FC368334A7BB1806891688B
:10463000884219D057EA060318D188F31188BFF3CE
:104640006F8F6FF00F0002B0BDE8F081916891F9B3
:104650000E1021610133E3609368A36088F3118831
:10466000BFF36F8F0020EEE72169F2E791F90E109A
:1046700090F90E309942A8BF19466FF07E02914220
:10468000B8BF11468B422EDD02F0A2FB0546CDE9F4
:1046900000761A482246414600F06AFB0028E1D025
:1046A0004FF02003EFF3118683F31288BFF36F8F6F
:1046B000A068D0B1236821699C420AD04BB193F91C
:1046C0000E309942A8BF19466FF07E039942B8BFD9
:1046D000194602F07DFB40B10848314600F0ACFBC2
:1046E0006FF00A00AFE70025D1E7002DF4D186F383
:1046F0001188BFF36F8FF3E7D4690020676E002045
:1047000038B504464FF02003EFF3118583F3128888
:10471000BFF36F8F02F062FC50B10022C0F8AC20F2
:1047200002F0E2FB29460848BDE8384000F084BBAF
:10473000D4E902329A4218BF0133A36085F311888D
:10474000BFF36F8F38BD00BF676E002013B54FF009
:104750002004EFF3118184F31288BFF36F8F846814
:1047600044B1013C846081F31188BFF36F8F002056
:1047700002B010BD52EA030406D181F31188BFF3E1
:104780006F8F6FF00F00F3E7CDE900230246024878
:1047900000F0EEFAECE700BF676E002070B504464B
:1047A0004FF02003EFF3118583F31288BFF36F8F6F
:1047B0006FF00A06204602F011FC20B1C0F8AC6090
:1047C00002F092FBF6E7A06029460248BDE870407F
:1047D00000F032BB676E00202DE9F04F4A4E85B0E5
:1047E00004464FF0FF384FF0FF394FF02003EFF34E
:1047F000118783F31288BFF36F8FD4F8B0508DB94F
:10480000022104F1C80002F0FEFA002843D100237F
:10481000CDE90089029304F1B80239463B4800F023
:1048200015FCE2E7D4F8B4202B68C4F8B030954208
:1048300008BFC4F8B430D4F8C83043F00203C4F859
:10484000C830EB6823F0040343F00103EB606B68AE
:1048500087F31188BFF36F8F284698474FF02003E6
:10486000EFF3118B83F31288BFF36F8FEB68990717
:1048700023F0010219D4EA60D4F8C83023F002030F
:10488000C4F8C8308BF31188BFF36F8FDB05ACD44D
:1048900000F03AFBA9E704F1C005002201212846F7
:1048A00002F0EFFB0028F8D1B1E7306823F00303F2
:1048B000EB600028E0D00027D0F800A03B4600289D
:1048C000DAD04268954201460CD101689FB97268FE
:1048D0003160824200D1716040F8083BFFF710FF61
:1048E00039460023BAF1000F0BD0DAF80020504609
:1048F0000F469246E3E739607268824208BF7760EC
:10490000EAE75246F3E700BFF8690020676E00202F
:10491000F8B5C3689A0704460F46C3F340062CD483
:104920005B071AD40B680BB983680B60E368DD077B
:1049300044BFA3683B603D684CBF02260126002DA2
:104940003AD01F4B9B68AB420AD0D5F8C830D80785
:10495000C3F3800214D46FF0120600233B6025E0FD
:1049600002F020FAD5F8C8300028F0D1D907C3F3F7
:10497000C002F0D552B15B0708D46FF00F06ECE728
:10498000002AFAD1C3F3C003002BF6D10023236021
:10499000D5F8B43063B9C5E92C44284602F03EFA94
:1049A000E36843F00403E3603B68A3603046F8BD6E
:1049B0001C60C5F8B440F0E76FF01506CDE700BF06
:1049C000D46900200146014802F043BAA018002033
:1049D000F0B589B004460020C4E92C000E9D04F116
:1049E000B800C4E92E0004F1C000C4E930001DB3D2
:1049F0002879002840F2011008BF0120C4F8C8003F
:104A000000204FF0FF364FF0FF37CDE90330CDE9FE
:104A10000100CDE90667094B00942046FFF740FDF1
:104A200025B1296811B12046FFF7C0FC204609B026
:104A3000BDE8F04002F0BCB90120DFE7D947000033
:104A4000C3897F2B12D80A4B1B6863B1094B90F9BD
:104A50000E201B689A4209DB437BDB0606D1064B1E
:104A6000C31A18BF012303F0010070470023FAE7BF
:104A7000086A0020046A002020170020044BC01A96
:104A8000044BC0105843044B01221A54704700BF16
:104A900080180020ABAAAAAA676E002070B50E4B42
:104AA0000E4C1E7C06EB460304EBC3040546204671
:104AB00002F00BFB0A4B002228469A55FFF7C0FF75
:104AC00048B1084B08491A68013A2046D317BDE897
:104AD000704000F02DBB70BDD4690020801800200C
:104AE000676E0020086A00207D4A000038B50D4D31
:104AF0002B4653F8184F9C4200D004B9EC68AB68C1
:104B000038B95A7BD20604D1A26912B9DA897F2A50
:104B100005D89C4202D02046FFF7C0FF23466B61B8
:104B200038BD00BFD469002070B590F90D20437BDB
:104B3000002A014604DA03F07F03437302F09AF976
:104B40004B7B154A63F07F0310464B7350F8183FB8
:104B5000D469834208BF002323B9C1E9000421605E
:104B6000D1610CE091F90E5093F90E60B5420ED070
:104B7000AE420CDD5868C1E90030016059609068B0
:104B8000431A5842BDE870405841FFF7AFBF9C42FE
:104B9000E3D01B68E0E700BFD469002070B490F94F
:104BA0000D30427B002B29DBD30627D183692BBB39
:104BB000134962F07F0242730A4652F8184F94423A
:104BC00018BF2346CC6923B9C0E900242060C8611E
:104BD0000CE090F90E5093F90E60B5420AD0AE4247
:104BE00008DD5A68C0E900321060586070BC0020CF
:104BF000FFF77CBFA342E7D01B68E4E770BC7047B7
:104C0000D469002008B590F90D20437B002A0146A5
:104C100004DA03F07F03437302F02CF9044B986825
:104C2000431A58425841BDE80840FFF75FBF00BF34
:104C3000D469002070B515461C46064602F02CF9D2
:104C4000B4F1FF3F08BFB5F1FF3F08D02A46234625
:104C500006F118000249BDE8704000F069BA70BD65
:104C6000A76F00002DE9F041002A437B0E460CBFE0
:104C700010210821194204460AD10B43DD0903F033
:104C80009F0211D14273082914D00120FFF72EFF93
:104C90001E4B9B68A34232D1EFF305837BBB3046AA
:104CA000BDE8F041FCF798B803F01F03437302F02E
:104CB000E1F8E8E7A36813B1204602F0E3F804F155
:104CC000180002F002FA04F158074FF00008A56D31
:104CD000BD4200D035B90120FFF708FF2046FFF79D
:104CE00047FBD5E7284602F0CDF805F1180002F0A1
:104CF000ECF9C5F8AC802846FFF750FFE7E786F3EC
:104D00001188BFF36F8FBDE8F08100BFD469002028
:104D100038B54FF02003EFF3118583F31288BFF30A
:104D20006F8F104B104A9C681068A04206D1FFF7A5
:104D3000B5FE85F31188BFF36F8F38BD00211B7C52
:104D400011600A4AD35C002BF3D02046FFF778FEAF
:104D50000028EED0637BDB0602D12046FFF7E4FE9D
:104D60002046E4E7D4690020006A0020676E002036
:104D700070B50C480C4D86682E600C461146DDE976
:104D800004234FF02006EFF3118586F31288BFF35A
:104D90006F8F8068FFF74EFF2046BDE87040FCF73C
:104DA0001BB800BFD4690020006A0020F8B5044693
:104DB0004FF02003EFF3118683F31288BFF36F8F58
:104DC000437BDA0649B219D18569BDB903F07F0387
:104DD000437302F04FF8437B164A817363F07F03FD
:104DE0004373134653F8180F984218BF0546D0690D
:104DF0005DB9C4E900300460D46111E0A173002002
:104E000086F31188BFF36F8FF8BD95F90E70B94224
:104E10000BD08F4209DD6B68C4E900531C606C60E5
:104E20000120FFF763FE0120EAE7A842E1D02D68E8
:104E3000DEE700BFD469002049B9EFF3058030B93F
:104E4000054B5A699B689A4201D0FBF7C5BF81F3B5
:104E50001188BFF36F8F7047D469002010B54FF0F1
:104E60002002EFF3118482F31288BFF36F8F427B2D
:104E7000510704D484F31188BFF36F8F10BD22F063
:104E800004024273FFF78AFE21460248BDE8104043
:104E9000FFF7D2BF686E00204FF02003EFF31181BF
:104EA00083F31288BFF36F8F044B9A68D37B013B67
:104EB000D37381F31188BFF36F8F7047D4690020DB
:104EC00010B54FF02003EFF3118483F31288BFF382
:104ED0006F8F084B9A68D37B0133D3730020FFF7A1
:104EE00005FE84F31188BFF36F8FBDE8104002F018
:104EF0009DB800BFD4690020024B03F11802C3E93A
:104F000006227047D4690020F8B54FF02003EFF374
:104F1000118583F31288BFF36F8F19498868437B2B
:104F200003F07F03437301F0A5FF8B685A7B0846AB
:104F300062F07F025A7350F8182FCC69824208BF82
:104F4000002222B9C3E900042360CB610CE093F98D
:104F50000E6092F90E70BE420ED0B7420CDD516861
:104F6000C3E900210B6053600120FFF7BFFD284615
:104F7000BDE8F840FBF730BFA242E3D01268E0E79B
:104F8000D469002050EA01032DE9F04105460E46A0
:104F900003D1FFF7B9FF00202CE0831C71F1FF3330
:104FA0002ADB02F0A8F82C184FF02003EFF3118849
:104FB00083F31288BFF36F8F114F124BB8681860DC
:104FC000FFF720FEB86810492A463346183000F033
:104FD000AFF8BA68537B43F0100353734046FBF7B6
:104FE000FBFE02F088F8201A63EB0303012873F13B
:104FF0000003D0DBBDE8F0816FF00104241AD3E791
:10500000D4690020006A0020A76F0000B1F1FF3FC3
:1050100008BFB0F1FF3F08B506D1084B986801F012
:1050200073FF4FF0FF3008BDFFF7ACFF4FF47A730A
:1050300080FB0303C00B40EA4340F4E7D46900203F
:10504000014B9868704700BFD4690020D3B5DDE9F3
:105050000667089CCDE90067FFF78AFE1CB1034B89
:105060009B685B69236002B0D0BD00BFD46900209B
:1050700008B50648064A0749121A01F091FEBDE834
:105080000840054A0549064801F08ABE0000002094
:105090000017002058790000000000005879000037
:1050A00000000020034B1B680BB9FDF72FBF002049
:1050B000704700BF0C6A002010B50E4B1C689C4264
:1050C00004D1FFF7EFFF6FF0004010BDFFF7EAFFDC
:1050D000002CF8D0D4E904321B1A62EBE072B3F171
:1050E000004F72F10001EEDA002AACBF1846002032
:1050F000EBE700BF7C02002030B570B10B4B5B6862
:1051000098420AD0036843B1D3E90421D0E90445A9
:10511000121941EB0501C3E90421D0E90032136003
:105120005A600023C0E9003330BD00BF7C0200207C
:10513000B3F1FF3F08BFB2F1FF3FF8B504461D468B
:1051400016465CD081604FF02003EFF3118783F3A4
:105150001288BFF36F8F013275F1FF3324DA2D49C6
:10516000D1E900206FF001039B1A4FF0FF3262EB90
:1051700000009E1B60EB0500012E70F1000301DAB8
:1051800001260020C4E90460234ED6F800C07568EB
:10519000B44508BF4FF0000CBCF1000F0DD1C4E9BD
:1051A00000652C6074601CE0FFF77CFF013645F160
:1051B0000005361845EBE070E4E7DCE90420D4E9AB
:1051C0000431934271EB000E1ADAD21ADCF8043083
:1051D00060EB0100CCE90420C4E900C31C60CCF8FA
:1051E00004403368B34206D09C4204D1FFF764FF09
:1051F0000021FDF75DFE87F31188BFF36F8FF8BDC7
:105200009B1A61EB0001AC45C4E90431C7D0DCF85E
:1052100000C0C1E7981800207C0200202DE9F84F5B
:105220004FF02003EFF3118C83F31288BFF36F8FDD
:10523000DFF8B0A0DFF8B0902C4FC9F80000DAF822
:1052400000000024504508BF00200025D7E90021B8
:10525000D9F80030E04680B3D0E9046C4FEAE37E31
:10526000B3427EEB0C0B05DAF61A6CEB0E04C0E9C8
:10527000046422E0B21841EBE671C0E90445C7E9D5
:105280000021FFF739FF88F31188BFF36F8F836820
:1052900098474FF02003EFF3118883F31288BFF390
:1052A0006F8FD9F80030DAF800009B1B5045C446D8
:1052B000C9F80030CAD1D7E900219A1841EBE3734D
:1052C0000024C7E90023C9F80040FFF7F5FE214696
:1052D000FDF7EEFD88F31188BFF36F8FBDE8F84F3F
:1052E000FFF716BD7C0200200C6A002098180020F1
:1052F00010B54FF02003EFF3118483F31288BFF34E
:105300006F8FFFF7CFFE064A0346D2E90001181857
:1053100041EBE37184F31188BFF36F8F10BD00BFC1
:1053200098180020F8B504464FF02003EFF31187DA
:1053300083F31288BFF36F8F026822B187F311885D
:10534000BFF36F8FF8BDD0E90A36581C46F1000153
:10535000022871F1000127D3012B76F10001BCBFB7
:10536000012316465D1E46F1FF3601F0C8FE0130EE
:1053700041F10001401946EB0101012871F10001E2
:105380003BDB01F0BCFE013041F100016FF0010296
:10539000401946EB0103121A4FF0FF3161EB030392
:1053A00018492046FFF7C4FE236B01332363236AA9
:1053B00073B187F31188BFF36F8F236A2046984734
:1053C0004FF02003EFF3118783F31288BFF36F8F41
:1053D00054F8185FA542B1D0002DAFD0284601F097
:1053E000AEFD0023C5F8AC3087F31188BFF36F8F93
:1053F0002846BDE8F84001F077BD6FF001024FF09C
:10540000FF33CDE7255300002DE9F04105461C464A
:1054100090461F464FF02003EFF3118683F3128866
:10542000BFF36F8FB4F1FF3F08BFB2F1FF3F05D16B
:1054300086F31188BFF36F8FBDE8F081531C74F1C0
:10544000FF3309DB012A74F10003BCBF01220024F1
:1054500012F1FF3844F1FF37284601F036FEDDE94E
:1054600006010023C5E90A012B63034942463B4676
:105470002846FFF75DFEDBE725530000014800F0FA
:105480008BBB00BF0F7900001FB5094B029302AB25
:1054900000240093074908488DF80C404FF0FF3373
:1054A0004FF48062FFF794FA204604B010BD00BFAD
:1054B0003D790000C09B0020A01800202DE9F04F8E
:1054C0008DB043680293837815469A07804640F171
:1054D0000D8100240E78002E00F00A81252E0BD0BD
:1054E0004B1C03930134029B4146304698470028E9
:1054F000C0F2F6800399EDE74E788B1C252E0393BE
:10550000F0D00027B946BB46BBF11F0F38D8A6F133
:105510002003102B0AD8DFE803F02A090930090913
:10552000092109090928092D09091F00A6F13003DD
:10553000092B33D92A2E37D11BF0400F55F8043BE5
:1055400040F08280002BA7BF4BF0200B9946C3F19F
:1055500000094BF0280B01E04BF0010B039B13F803
:10556000016B0393002ECFD130E04BF0020B4BF0D8
:10557000040BF3E74BF0080BF0E74BF0100BEDE7F3
:10558000BBF17F0F19D8A6F13003092BD2D81BF03D
:10559000400F03D00A2101FB0737DFE70A2101FB97
:1055A00009394BF0200BD9E72E2E06D11BF0400F06
:1055B00040F09E804BF0400BD0E76C2E31D02BD8C2
:1055C000682E36D06A2E3CD04C2E3AD0002F46F0B2
:1055D0002003B8BF2BF04002A3F16501BCBF1FFA46
:1055E00082FB0027022901D9612B2FD1073525F035
:1055F0000705DFF8ACA2083507271BF0080F66D0B7
:105600000AEB070B56465E4563D1A4EB0A0A06EB8C
:105610000A02A9EB07096FE1742E9FD07A2E9DD064
:10562000D4E71BF0800F18BF4BF4007B4BF0800BCE
:1056300094E71BF4807F18BF4BF4007B4BF4807B16
:105640008CE74BF4207B89E71F4687E7A6F16301CF
:10565000122900F2F080DFE811F013004F00EE0095
:10566000EE00EE00EE004F00EE00EE00EE00EE0069
:10567000EE00FE00E900EE00EE001B00EE00AF00C1
:1056800055F8043B8DF8183001270DF1180AB4E7DE
:1056900055F804AB834BBAF1000F08BF9A461BF0D4
:1056A000400F14BF39464FF0FF31504601F056FD10
:1056B0000746A2E7029B41462020984700280FDBBF
:1056C000013EB742F6D34C44A41BB14698E74E4680
:1056D000F7E716F8010B029B41469847002892DA3B
:1056E00098F8023043F0040388F802304FF0FF349A
:1056F00020460DB0BDE8F08F1BF0800F34D01BF4B6
:10570000007F2CD0073525F00705AA4669685AF8AE
:10571000080B2BF010050029ADB237DA404261EBDF
:10572000410145F480650DF1180B0A235A4601F03A
:1057300021FDA0EB0B0301936B0662D5019B25F0C5
:1057400001019F4289B240F3A180002E00F09980B0
:1057500015F0100240F09C80BB460D4623E0AA469F
:105760005AF8040BC117D4E7AA461BF4807F5AF8F5
:10577000041B01D10846F5E71BF4007F15BF48B2B2
:1057800008B241F3C01141F3C031C2E750EA01034E
:10579000C9D11BF0400FC6D0002FC4D12BF011028D
:1057A00095B2BB46019740F2064115EA01021CBFC3
:1057B0000BF1010B00222CE02BF010021FFA82FBF0
:1057C0000A231BF0800C49D01BF400711DBF073564
:1057D00025F00705AA46AA461ABF5AF8080B6968B9
:1057E0005AF8040B50EA010545D12BF016051BF0C1
:1057F000400FADB242D0002F40D12BF0170295B22E
:10580000019715F0100248D0019B002E42D103F100
:10581000010B29075AD4EB0706D5D9456FDD01994D
:10582000A9EB0B035F18CB465B4649E04BF0100B2E
:1058300010237826C5E7782B04D1C6F1780343F00E
:105840001003BEE7029B4146252098470028FFF63B
:1058500047AF023447E608230026B2E7AA461BF406
:1058600080715AF8040BBDD01BF400711ABFC0B28E
:10587000614680B2B6E72BF0060295B20DF1180B27
:1058800054E725F01105ADB2BB468CE70D46B8E7ED
:105890003B460D4603F1020BBBE7DDF804B082E79F
:1058A0004D79000046790000CDE904324146029B63
:1058B000202098470028FFF613AF049B059A013378
:1058C0009945F1DCA4EB0B01CC189B460AB3029B73
:1058D0004146302098470028FFF602AF8EB90134C8
:1058E0002744019B391B994224DC1D465DBB019A6C
:1058F000A9EB0B09224455461446914435E0019F1B
:1059000092E7023441463046029B98470028E7DA86
:10591000E6E640F206410D42E2D015F0020F14BF58
:105920002B20202015F4806F04F10104414618BF9C
:105930002D20E9E7029B414630209847002804F1DA
:105940000104CEDACCE606AB013D4146585D029B30
:1059500098470028CADAC3E6029B414620209847B0
:10596000002804F10104FFF6BBAEA9EB0403002BF1
:10597000F2DCBFE5704710B504460020FAF776FE6A
:105980002046BDE81040FAF77DBE10B50446012060
:10599000FAF76CFE2046BDE81040FAF773BEC82047
:1059A00000F0E5B838B504463220FFF7E4FF651E85
:1059B000983415F8010FFFF7E8FFA542F9D1BDE8CB
:1059C0003840FFF7ECBF10B50446FFF7EBFF3F2070
:1059D000FFF7D1FF94F89900FFF7D7FF0320FFF7F7
:1059E000CAFF94F89A00FFF7D0FF0420FFF7C3FF27
:1059F00094F89B00FFF7C9FF94F89C00FFF7C5FFE0
:105A000094F89D00FFF7C1FF2C20FFF7B4FF94F836
:105A10009E00BDE81040FFF7B8BF08B50020FAF7B8
:105A20001FFE0A2000F0A3F80120FAF719FEBDE8D6
:105A30000840142000F09BB808B52220FFF79BFF18
:105A4000C720FFF7A2FF2020FFF795FFBDE8084021
:105A5000FFF7A5BF38B52420FFF78DFFC82519240F
:105A6000FF20FFF792FF013CFAD1013DF7D126203C
:105A7000FFF781FFC8251924FF20FFF786FF013CAF
:105A8000FAD1013DF7D1BDE83840FFF7D5BF2DE988
:105A9000F843044628B32420FFF76DFF002504F1E6
:105AA000190741F288392E1907EB050816F8010B82
:105AB000FFF76BFF4645F9D119354D45F3D1262047
:105AC000FFF759FF002541F28839661907EB0508F1
:105AD00016F8010BFFF759FF4645F9D119354D4529
